{
  "_format": "hh-sol-artifact-1",
  "contractName": "ComponentStore",
  "sourceName": "contracts/systems/core/CompoentStore.sol",
  "abi": [
    {
      "inputs": [],
      "stateMutability": "nonpayable",
      "type": "constructor"
    },
    {
      "inputs": [],
      "name": "CreateFail",
      "type": "error"
    },
    {
      "anonymous": false,
      "inputs": [
        {
          "indexed": true,
          "internalType": "address",
          "name": "to",
          "type": "address"
        },
        {
          "indexed": false,
          "internalType": "uint8",
          "name": "id",
          "type": "uint8"
        },
        {
          "indexed": false,
          "internalType": "uint8",
          "name": "grade",
          "type": "uint8"
        },
        {
          "indexed": true,
          "internalType": "uint256",
          "name": "tokenId",
          "type": "uint256"
        }
      ],
      "name": "Buy",
      "type": "event"
    },
    {
      "anonymous": false,
      "inputs": [
        {
          "indexed": false,
          "internalType": "uint8",
          "name": "version",
          "type": "uint8"
        }
      ],
      "name": "Initialized",
      "type": "event"
    },
    {
      "anonymous": false,
      "inputs": [
        {
          "indexed": true,
          "internalType": "uint256",
          "name": "tokenId",
          "type": "uint256"
        },
        {
          "indexed": true,
          "internalType": "uint256",
          "name": "abrasion",
          "type": "uint256"
        }
      ],
      "name": "Repaire",
      "type": "event"
    },
    {
      "anonymous": false,
      "inputs": [
        {
          "indexed": true,
          "internalType": "address",
          "name": "to",
          "type": "address"
        },
        {
          "indexed": true,
          "internalType": "uint256",
          "name": "tokenId",
          "type": "uint256"
        }
      ],
      "name": "Sell",
      "type": "event"
    },
    {
      "anonymous": false,
      "inputs": [
        {
          "indexed": true,
          "internalType": "uint256",
          "name": "tokenId",
          "type": "uint256"
        },
        {
          "indexed": true,
          "internalType": "uint256",
          "name": "abrasion",
          "type": "uint256"
        }
      ],
      "name": "Wear",
      "type": "event"
    },
    {
      "inputs": [],
      "name": "agency",
      "outputs": [
        {
          "internalType": "contract ERC7527Agency",
          "name": "",
          "type": "address"
        }
      ],
      "stateMutability": "view",
      "type": "function"
    },
    {
      "inputs": [],
      "name": "agencyDeployAddress",
      "outputs": [
        {
          "internalType": "address",
          "name": "",
          "type": "address"
        }
      ],
      "stateMutability": "view",
      "type": "function"
    },
    {
      "inputs": [],
      "name": "app",
      "outputs": [
        {
          "internalType": "contract ERC7527App",
          "name": "",
          "type": "address"
        }
      ],
      "stateMutability": "view",
      "type": "function"
    },
    {
      "inputs": [],
      "name": "appDeployAddress",
      "outputs": [
        {
          "internalType": "address",
          "name": "",
          "type": "address"
        }
      ],
      "stateMutability": "view",
      "type": "function"
    },
    {
      "inputs": [
        {
          "internalType": "uint8",
          "name": "_id",
          "type": "uint8"
        },
        {
          "internalType": "uint8",
          "name": "_grade",
          "type": "uint8"
        }
      ],
      "name": "buy",
      "outputs": [],
      "stateMutability": "payable",
      "type": "function"
    },
    {
      "inputs": [
        {
          "components": [
            {
              "internalType": "address payable",
              "name": "implementation",
              "type": "address"
            },
            {
              "components": [
                {
                  "internalType": "address",
                  "name": "currency",
                  "type": "address"
                },
                {
                  "internalType": "uint256",
                  "name": "premium",
                  "type": "uint256"
                },
                {
                  "internalType": "address",
                  "name": "feeRecipient",
                  "type": "address"
                },
                {
                  "internalType": "uint16",
                  "name": "mintFeePercent",
                  "type": "uint16"
                },
                {
                  "internalType": "uint16",
                  "name": "burnFeePercent",
                  "type": "uint16"
                }
              ],
              "internalType": "struct Asset",
              "name": "asset",
              "type": "tuple"
            },
            {
              "internalType": "bytes",
              "name": "immutableData",
              "type": "bytes"
            },
            {
              "internalType": "bytes",
              "name": "initData",
              "type": "bytes"
            }
          ],
          "internalType": "struct AgencySettings",
          "name": "agencySettings",
          "type": "tuple"
        },
        {
          "components": [
            {
              "internalType": "address",
              "name": "implementation",
              "type": "address"
            },
            {
              "internalType": "bytes",
              "name": "immutableData",
              "type": "bytes"
            },
            {
              "internalType": "bytes",
              "name": "initData",
              "type": "bytes"
            }
          ],
          "internalType": "struct AppSettings",
          "name": "appSettings",
          "type": "tuple"
        },
        {
          "internalType": "bytes",
          "name": "",
          "type": "bytes"
        }
      ],
      "name": "deployWrap",
      "outputs": [
        {
          "internalType": "address",
          "name": "",
          "type": "address"
        },
        {
          "internalType": "address",
          "name": "",
          "type": "address"
        }
      ],
      "stateMutability": "nonpayable",
      "type": "function"
    },
    {
      "inputs": [],
      "name": "factory",
      "outputs": [
        {
          "internalType": "contract ERC7527Factory",
          "name": "",
          "type": "address"
        }
      ],
      "stateMutability": "view",
      "type": "function"
    },
    {
      "inputs": [
        {
          "internalType": "uint256",
          "name": "_tokenId",
          "type": "uint256"
        }
      ],
      "name": "getAbrasion",
      "outputs": [
        {
          "internalType": "uint256",
          "name": "",
          "type": "uint256"
        }
      ],
      "stateMutability": "view",
      "type": "function"
    },
    {
      "inputs": [
        {
          "internalType": "uint256",
          "name": "_tokenId",
          "type": "uint256"
        }
      ],
      "name": "getComId",
      "outputs": [
        {
          "internalType": "uint256",
          "name": "",
          "type": "uint256"
        }
      ],
      "stateMutability": "view",
      "type": "function"
    },
    {
      "inputs": [
        {
          "internalType": "uint256",
          "name": "_tokenId",
          "type": "uint256"
        }
      ],
      "name": "getComIdByTokenId",
      "outputs": [
        {
          "internalType": "uint8",
          "name": "",
          "type": "uint8"
        }
      ],
      "stateMutability": "view",
      "type": "function"
    },
    {
      "inputs": [
        {
          "internalType": "uint256",
          "name": "_tokenId",
          "type": "uint256"
        }
      ],
      "name": "getGrade",
      "outputs": [
        {
          "internalType": "uint256",
          "name": "",
          "type": "uint256"
        }
      ],
      "stateMutability": "view",
      "type": "function"
    },
    {
      "inputs": [
        {
          "internalType": "uint256",
          "name": "_tokenId",
          "type": "uint256"
        }
      ],
      "name": "getMaxTimeUp",
      "outputs": [
        {
          "internalType": "uint256",
          "name": "",
          "type": "uint256"
        }
      ],
      "stateMutability": "view",
      "type": "function"
    },
    {
      "inputs": [
        {
          "internalType": "address",
          "name": "_address",
          "type": "address"
        }
      ],
      "name": "getProperty",
      "outputs": [
        {
          "internalType": "uint256",
          "name": "speedUp",
          "type": "uint256"
        },
        {
          "internalType": "uint256",
          "name": "maxTimeUp",
          "type": "uint256"
        },
        {
          "internalType": "uint256",
          "name": "punishRate",
          "type": "uint256"
        }
      ],
      "stateMutability": "view",
      "type": "function"
    },
    {
      "inputs": [
        {
          "internalType": "uint256",
          "name": "_tokenId",
          "type": "uint256"
        }
      ],
      "name": "getPunishRate",
      "outputs": [
        {
          "internalType": "uint256",
          "name": "",
          "type": "uint256"
        }
      ],
      "stateMutability": "view",
      "type": "function"
    },
    {
      "inputs": [
        {
          "internalType": "uint256",
          "name": "_tokenId",
          "type": "uint256"
        }
      ],
      "name": "getSpeedUp",
      "outputs": [
        {
          "internalType": "uint256",
          "name": "",
          "type": "uint256"
        }
      ],
      "stateMutability": "view",
      "type": "function"
    },
    {
      "inputs": [
        {
          "internalType": "address",
          "name": "_tokenAddress",
          "type": "address"
        },
        {
          "internalType": "uint256[][]",
          "name": "_properties",
          "type": "uint256[][]"
        }
      ],
      "name": "initialize",
      "outputs": [],
      "stateMutability": "nonpayable",
      "type": "function"
    },
    {
      "inputs": [
        {
          "internalType": "address",
          "name": "_carAddress",
          "type": "address"
        },
        {
          "internalType": "uint256",
          "name": "_abrasion",
          "type": "uint256"
        }
      ],
      "name": "repair",
      "outputs": [],
      "stateMutability": "nonpayable",
      "type": "function"
    },
    {
      "inputs": [
        {
          "internalType": "uint256",
          "name": "_tokenId",
          "type": "uint256"
        }
      ],
      "name": "sell",
      "outputs": [],
      "stateMutability": "nonpayable",
      "type": "function"
    },
    {
      "inputs": [
        {
          "internalType": "address",
          "name": "_carAddress",
          "type": "address"
        },
        {
          "internalType": "uint256",
          "name": "_abrasion",
          "type": "uint256"
        }
      ],
      "name": "wear",
      "outputs": [],
      "stateMutability": "nonpayable",
      "type": "function"
    }
  ],
  "bytecode": "0x608060405234801561001057600080fd5b5061001961001e565b6100dd565b600054610100900460ff161561008a5760405162461bcd60e51b815260206004820152602760248201527f496e697469616c697a61626c653a20636f6e747261637420697320696e697469604482015266616c697a696e6760c81b606482015260840160405180910390fd5b60005460ff908116146100db576000805460ff191660ff9081179091556040519081527f7f26b83ff96e1f2b6a682f133852f6798a09c465da95921460cefb38474024989060200160405180910390a15b565b615a6f80620000ed6000396000f3fe6080604052600436106200015e5760003560e01c8063856ce42311620000cf578063c8c981f9116200007d578063e4849b321162000060578063e4849b32146200045f578063f8046eea1462000484578063f953bf0714620004b557600080fd5b8063c8c981f914620003f2578063e1e0485e146200042657600080fd5b8063b76564bd11620000b2578063b76564bd1462000389578063b80acde814620003ab578063c45a015514620003d057600080fd5b8063856ce4231462000323578063952ba6d4146200034857600080fd5b8063413c0c18116200012d57806367bc87fa116200011057806367bc87fa14620002ab578063784608dc14620002cd57806381b72e5b14620002ef57600080fd5b8063413c0c18146200025d5780634ac89714146200029257600080fd5b80630f47899114620001635780631e482f9d14620001ad5780632e4924bd14620001f45780633b91ee261462000222575b600080fd5b3480156200017057600080fd5b506200018862000182366004620019c5565b620004da565b604080516001600160a01b039384168152929091166020830152015b60405180910390f35b348015620001ba57600080fd5b50620001e1620001cc36600462001a95565b60009081526001602052604090205460ff1690565b60405160ff9091168152602001620001a4565b3480156200020157600080fd5b5062000213620001cc36600462001a95565b604051908152602001620001a4565b3480156200022f57600080fd5b5060065462000244906001600160a01b031681565b6040516001600160a01b039091168152602001620001a4565b3480156200026a57600080fd5b50620002136200027c36600462001a95565b6000908152600160208190526040909120015490565b620002a9620002a336600462001ac6565b620007ad565b005b348015620002b857600080fd5b5060055462000244906001600160a01b031681565b348015620002da57600080fd5b5060045462000244906001600160a01b031681565b348015620002fc57600080fd5b50620002136200030e36600462001a95565b60009081526001602052604090206002015490565b3480156200033057600080fd5b50620002a96200034236600462001b14565b62000bdc565b3480156200035557600080fd5b506200036d6200036736600462001b43565b62000d36565b60408051938452602084019290925290820152606001620001a4565b3480156200039657600080fd5b5060075462000244906001600160a01b031681565b348015620003b857600080fd5b50620002a9620003ca36600462001bdb565b62000ec5565b348015620003dd57600080fd5b5060085462000244906001600160a01b031681565b348015620003ff57600080fd5b50620002136200041136600462001a95565b60009081526001602052604090206003015490565b3480156200043357600080fd5b50620002136200044536600462001a95565b600090815260016020526040902054610100900460ff1690565b3480156200046c57600080fd5b50620002a96200047e36600462001a95565b62001293565b3480156200049157600080fd5b5062000213620004a336600462001a95565b60009081526002602052604090205490565b348015620004c257600080fd5b50620002a9620004d436600462001b14565b620014f3565b6000808062000545620004f1602088018862001d10565b8080601f0160208091040260200160405190810160405280939291908181526020018383808284376000920191909152506200053592505050602089018962001b43565b6001600160a01b03169062001647565b90506000620005eb826200056060408b0160208c0162001b43565b60408b01356200057760808d0160608e0162001b43565b6200058960a08e0160808f0162001d7f565b8d6020016080016020810190620005a1919062001d7f565b8e8060c00190620005b3919062001d10565b604051602001620005cc98979695949392919062001da5565b60408051601f198184030181529190526200053560208b018b62001b43565b6040517f39b3d2430000000000000000000000000000000000000000000000000000000081526001600160a01b038083166004830152919250908316906339b3d24390602401600060405180830381600087803b1580156200064c57600080fd5b505af115801562000661573d6000803e3d6000fd5b50620006759250505060e089018962001d10565b15905062000703576000806001600160a01b0383166200069960e08c018c62001d10565b604051620006a992919062001e42565b6000604051808303816000865af19150503d8060008114620006e8576040519150601f19603f3d011682016040523d82523d6000602084013e620006ed565b606091505b5091509150816200070057805160208201fd5b50505b62000712604088018862001d10565b159050620007a0576000806001600160a01b0384166200073660408b018b62001d10565b6040516200074692919062001e42565b6000604051808303816000865af19150503d806000811462000785576040519150601f19603f3d011682016040523d82523d6000602084013e6200078a565b606091505b5091509150816200079d57805160208201fd5b50505b9097909650945050505050565b600980549081906000620007c18362001e68565b909155505060035460ff841611801590620007df575060008360ff16115b620008315760405162461bcd60e51b815260206004820152601760248201527f68617665206e6f74207468697320636f6d706f6e656e7400000000000000000060448201526064015b60405180910390fd5b600360008154811062000848576200084862001e85565b60009182526020909120015460ff8316118015906200086a575060008260ff16115b620008b85760405162461bcd60e51b815260206004820152601360248201527f68617665206e6f74207468697320677261646500000000000000000000000000604482015260640162000828565b60008060008560ff1660010362000930576003620008d860018862001e9b565b60ff1681548110620008ee57620008ee62001e85565b9060005260206000200160018662000907919062001e9b565b60ff16815481106200091d576200091d62001e85565b9060005260206000200154925062000a11565b8560ff16600203620009a35760036200094b60018862001e9b565b60ff168154811062000961576200096162001e85565b906000526020600020016001866200097a919062001e9b565b60ff168154811062000990576200099062001e85565b9060005260206000200154915062000a11565b8560ff1660030362000a11576003620009be60018862001e9b565b60ff1681548110620009d457620009d462001e85565b90600052602060002001600186620009ed919062001e9b565b60ff168154811062000a035762000a0362001e85565b906000526020600020015490505b6005546040516000916001600160a01b031690638ba6cd0390339062000a499089908b9060200191825260ff16602082015260400190565b6040516020818303038152906040526040518363ffffffff1660e01b815260040162000a7792919062001f05565b6020604051808303816000875af115801562000a97573d6000803e3d6000fd5b505050506040513d601f19601f8201168201806040525081019062000abd919062001f31565b6040805160a08101825260ff808b16825289811660208084019182528385018a8152606085018a8152608086018a815260008e8152600180865289822098518954975189166101000261ffff199098169816979097179590951787559151948601949094559251600280860191909155925160039094019390935591522060649055905084811462000b925760405162461bcd60e51b815260206004820152600e60248201527f77726f6e6720746f6b656e204964000000000000000000000000000000000000604482015260640162000828565b6040805160ff808a16825288166020820152869133917f532513a2a2b9c518cb89d11c0131078cffdc5d454ac7c3fcc85a72dbfc6c5c15910160405180910390a350505050505050565b600480546040516370a0823160e01b81526001600160a01b0385811693820193909352600092909116906370a0823190602401602060405180830381865afa15801562000c2d573d6000803e3d6000fd5b505050506040513d601f19601f8201168201806040525081019062000c53919062001f31565b905060005b8181101562000d305760048054604051632f745c5960e01b81526001600160a01b03878116938201939093526024810184905260009290911690632f745c5990604401602060405180830381865afa15801562000cb9573d6000803e3d6000fd5b505050506040513d601f19601f8201168201806040525081019062000cdf919062001f31565b905062000ced8185620017df565b604051849082907f9d56fbed542905e7381399f5356599264790c2003d477fe1260e727b96fa3a6e90600090a3508062000d278162001e68565b91505062000c58565b50505050565b600480546040516370a0823160e01b81526001600160a01b0384811693820193909352600092839283928392909116906370a0823190602401602060405180830381865afa15801562000d8d573d6000803e3d6000fd5b505050506040513d601f19601f8201168201806040525081019062000db3919062001f31565b905060005b8181101562000ebc5760048054604051632f745c5960e01b81526001600160a01b03898116938201939093526024810184905260009290911690632f745c5990604401602060405180830381865afa15801562000e19573d6000803e3d6000fd5b505050506040513d601f19601f8201168201806040525081019062000e3f919062001f31565b6000818152600160208190526040909120015490915062000e61908762001f4b565b60008281526001602052604090206002015490965062000e82908662001f4b565b60008281526001602052604090206003015490955062000ea3908562001f4b565b935050808062000eb39062001e68565b91505062000db8565b50509193909250565b600054610100900460ff161580801562000ee65750600054600160ff909116105b8062000f025750303b15801562000f02575060005460ff166001145b62000f765760405162461bcd60e51b815260206004820152602e60248201527f496e697469616c697a61626c653a20636f6e747261637420697320616c72656160448201527f647920696e697469616c697a6564000000000000000000000000000000000000606482015260840162000828565b600080547fffffffffffffffffffffffffffffffffffffffffffffffffffffffffffffff00166001179055801562000fb8576000805461ff0019166101001790555b60405162000fc69062001890565b604051809103906000f08015801562000fe3573d6000803e3d6000fd5b506006805473ffffffffffffffffffffffffffffffffffffffff19166001600160a01b03929092169190911790556040516200101f906200189e565b604051809103906000f0801580156200103c573d6000803e3d6000fd5b506007805473ffffffffffffffffffffffffffffffffffffffff19166001600160a01b03929092169190911790556040516200107890620018ac565b604051809103906000f08015801562001095573d6000803e3d6000fd5b506008805473ffffffffffffffffffffffffffffffffffffffff19166001600160a01b039283169081179091556040805160a081018252868416815267016345785d8a00006020808301919091523382840152600a60608084018290526080808501929092528451918201855260065487168252818301849052845180840186526000808252838701919091528551808501875281815283830152855191820186526007549097168152845180840186528781528184015284518084018652878152818601528451928301855295825292517f0f4789910000000000000000000000000000000000000000000000000000000081529194929391630f47899191620011a7918691869160040162001faf565b60408051808303816000875af1158015620011c6573d6000803e3d6000fd5b505050506040513d601f19601f82011682018060405250810190620011ec9190620020a4565b600580546001600160a01b0392831673ffffffffffffffffffffffffffffffffffffffff19918216179091556004805493909216921691909117905584516200123d906003906020880190620018ba565b50506103e8600955505080156200128e576000805461ff0019169055604051600181527f7f26b83ff96e1f2b6a682f133852f6798a09c465da95921460cefb38474024989060200160405180910390a15b505050565b600480546040517f6352211e00000000000000000000000000000000000000000000000000000000815291820183905233916001600160a01b0390911690636352211e90602401602060405180830381865afa158015620012f8573d6000803e3d6000fd5b505050506040513d601f19601f820116820180604052508101906200131e9190620020e3565b6001600160a01b0316146200139c5760405162461bcd60e51b815260206004820152603160248201527f4974206973206e6f7420796f757220636f6d706f6e656e74206f7220796f752060448201527f6861766120746f20756e6c6f6164206974000000000000000000000000000000606482015260840162000828565b6000818152600260209081526040808320548151928301520160408051601f19818403018152908290526005547f3c6e2f220000000000000000000000000000000000000000000000000000000083529092506001600160a01b031690633c6e2f2290620014139033908690869060040162002103565b600060405180830381600087803b1580156200142e57600080fd5b505af115801562001443573d6000803e3d6000fd5b50506040805160a0810182526000808252602080830182815283850183815260608501848152608086018581528b8652600180865288872097518854955160ff9081166101000261ffff19909716911617949094178755915192860192909255905160028086019190915590516003909401939093559190915281812081905590518593503392507f5e5e995ce3133561afceaa51a9a154d5db228cd7525d34df5185582c18d3df099190a35050565b600480546040516370a0823160e01b81526001600160a01b0385811693820193909352600092909116906370a0823190602401602060405180830381865afa15801562001544573d6000803e3d6000fd5b505050506040513d601f19601f820116820180604052508101906200156a919062001f31565b905060005b8181101562000d305760048054604051632f745c5960e01b81526001600160a01b03878116938201939093526024810184905260009290911690632f745c5990604401602060405180830381865afa158015620015d0573d6000803e3d6000fd5b505050506040513d601f19601f82011682018060405250810190620015f6919062001f31565b905062001604818562001836565b604051849082907fce2cb8b9b35a396250f020799bbe1c6be8b0bfcbc7e6fed05f4226118078791d90600090a350806200163e8162001e68565b9150506200156f565b80516040517f610000000000000000000000000000000000000000000000000000000000000081526039820160f081811b60018401527f3d81600a3d39f33d3d3d3d363d3d376100000000000000000000000000000000600384015260028401901b601383018190527f60373639366100000000000000000000000000000000000000000000000000006015840152601b8301527f013d730000000000000000000000000000000000000000000000000000000000601d830152606085901b6020808401919091527f5af43d3d93803e603557fd5bf30000000000000000000000000000000000000060348401526000939260438401929186019084604182015b60208210620017695783518152602093840193601f19909201910162001748565b835160001960208490036101000a0119908116825260f088901b91830191825286846000f098506001600160a01b038916620017d1576040517febfef18800000000000000000000000000000000000000000000000000000000815260040160405180910390fd5b505050505050505092915050565b600082815260026020526040902054811015620018225760008281526002602052604081208054839290620018169084906200212d565b90915550620018329050565b6000828152600260205260408120555b5050565b6000828152600260205260409020546064906200185590839062001f4b565b11156200186757506000526002602052565b600082815260026020526040812080548392906200188790849062001f4b565b90915550505050565b610edc806200214483390190565b612267806200302083390190565b6107b3806200528783390190565b8280548282559060005260206000209081019282156200190c579160200282015b828111156200190c5782518051620018fb9184916020909101906200191e565b5091602001919060010190620018db565b506200191a9291506200196a565b5090565b8280548282559060005260206000209081019282156200195c579160200282015b828111156200195c5782518255916020019190600101906200193f565b506200191a9291506200198b565b808211156200191a576000620019818282620019a2565b506001016200196a565b5b808211156200191a57600081556001016200198c565b5080546000825590600052602060002090810190620019c291906200198b565b50565b60008060008060608587031215620019dc57600080fd5b843567ffffffffffffffff80821115620019f557600080fd5b90860190610100828903121562001a0b57600080fd5b9094506020860135908082111562001a2257600080fd5b908601906060828903121562001a3757600080fd5b9093506040860135908082111562001a4e57600080fd5b818701915087601f83011262001a6357600080fd5b81358181111562001a7357600080fd5b88602082850101111562001a8657600080fd5b95989497505060200194505050565b60006020828403121562001aa857600080fd5b5035919050565b803560ff8116811462001ac157600080fd5b919050565b6000806040838503121562001ada57600080fd5b62001ae58362001aaf565b915062001af56020840162001aaf565b90509250929050565b6001600160a01b0381168114620019c257600080fd5b6000806040838503121562001b2857600080fd5b823562001b358162001afe565b946020939093013593505050565b60006020828403121562001b5657600080fd5b813562001b638162001afe565b9392505050565b634e487b7160e01b600052604160045260246000fd5b604051601f8201601f1916810167ffffffffffffffff8111828210171562001bac5762001bac62001b6a565b604052919050565b600067ffffffffffffffff82111562001bd15762001bd162001b6a565b5060051b60200190565b600080604080848603121562001bf057600080fd5b833562001bfd8162001afe565b925060208481013567ffffffffffffffff8082111562001c1c57600080fd5b818701915087601f83011262001c3157600080fd5b813562001c4862001c428262001bb4565b62001b80565b81815260059190911b8301840190848101908a83111562001c6857600080fd5b8585015b8381101562001cfe5780358581111562001c865760008081fd5b8601603f81018d1362001c995760008081fd5b8781013562001cac62001c428262001bb4565b81815260059190911b82018a0190898101908f83111562001ccd5760008081fd5b928b01925b8284101562001ced5783358252928a0192908a019062001cd2565b865250505091860191860162001c6c565b50809750505050505050509250929050565b60008083357fffffffffffffffffffffffffffffffffffffffffffffffffffffffffffffffe184360301811262001d4657600080fd5b83018035915067ffffffffffffffff82111562001d6257600080fd5b60200191503681900382131562001d7857600080fd5b9250929050565b60006020828403121562001d9257600080fd5b813561ffff8116811462001b6357600080fd5b60007fffffffffffffffffffffffffffffffffffffffff000000000000000000000000808b60601b168352808a60601b166014840152886028840152808860601b166048840152507fffff000000000000000000000000000000000000000000000000000000000000808760f01b16605c840152808660f01b16605e84015250828460608401375060009101606001908152979650505050505050565b8183823760009101908152919050565b634e487b7160e01b600052601160045260246000fd5b6000600019820362001e7e5762001e7e62001e52565b5060010190565b634e487b7160e01b600052603260045260246000fd5b60ff828116828216039081111562001eb75762001eb762001e52565b92915050565b6000815180845260005b8181101562001ee55760208185018101518683018201520162001ec7565b506000602082860101526020601f19601f83011685010191505092915050565b6001600160a01b038316815260406020820152600062001f29604083018462001ebd565b949350505050565b60006020828403121562001f4457600080fd5b5051919050565b8082018082111562001eb75762001eb762001e52565b6001600160a01b038151168252600060208201516060602085015262001f8b606085018262001ebd565b90506040830151848203604086015262001fa6828262001ebd565b95945050505050565b6060815260006001600160a01b038086511660608401526020860151818151166080850152602081015160a08501528160408201511660c08501526060810151915061ffff80831660e086015260808201519250610100915080831682860152506040870151915080610120850152506200202f61016084018262001ebd565b905060608601517fffffffffffffffffffffffffffffffffffffffffffffffffffffffffffffffa0848303016101408501526200206d828262001ebd565b915050828103602084015262002084818662001f61565b905082810360408401526200209a818562001ebd565b9695505050505050565b60008060408385031215620020b857600080fd5b8251620020c58162001afe565b6020840151909250620020d88162001afe565b809150509250929050565b600060208284031215620020f657600080fd5b815162001b638162001afe565b6001600160a01b038416815282602082015260606040820152600062001fa6606083018462001ebd565b8181038181111562001eb75762001eb762001e5256fe608060405234801561001057600080fd5b50610ebc806100206000396000f3fe60806040526004361061005e5760003560e01c8063469927361161004357806346992736146100ac5780638ba6cd03146100e15780638e1f14471461010257600080fd5b806307da06031461006a5780633c6e2f221461009757600080fd5b3661006557005b600080fd5b34801561007657600080fd5b5061007f610122565b60405161008e93929190610acd565b60405180910390f35b6100aa6100a5366004610b98565b6101e7565b005b3480156100b857600080fd5b506100cc6100c7366004610c0a565b61048f565b6040805192835260208301919091520161008e565b6100f46100ef366004610cbb565b61050f565b60405190815260200161008e565b34801561010e57600080fd5b506100cc61011d366004610c0a565b610847565b6040805160a0810182526000808252602082018190529181018290526060810182905260808101829052606060006101827ffffffffffffffffffffffffffffffffffffffffffffffffffffffffffffffffe368181013560f01c90030190565b6040805160a0810182526014830135606090811c825260288401356020808401919091526048850135821c83850152605c85013560f090811c84840152605e860135901c6080840152835190810190935260008352923590921c969195509350915050565b6000806101f2610122565b50915091506102028232876108b4565b61026d576040517f08c379a000000000000000000000000000000000000000000000000000000000815260206004820152601360248201527f4c6e4d6f64756c653a206e6f74206f776e65720000000000000000000000000060448201526064015b60405180910390fd5b600061027b84860186610d10565b6040517ffe9d93030000000000000000000000000000000000000000000000000000000081529091506001600160a01b0384169063fe9d9303906102c790899089908990600401610d29565b600060405180830381600087803b1580156102e157600080fd5b505af11580156102f5573d6000803e3d6000fd5b505050506000836001600160a01b03166318160ddd6040518163ffffffff1660e01b8152600401602060405180830381865afa158015610339573d6000803e3d6000fd5b505050506040513d601f19601f8201168201806040525081019061035d9190610d5f565b9050600061038b8260405160200161037791815260200190565b604051602081830303815290604052610847565b5084519091506001600160a01b031663a9059cbb8a60646103ac8786610d8e565b6103b69190610dab565b6040517fffffffff0000000000000000000000000000000000000000000000000000000060e085901b1681526001600160a01b03909216600483015260248201526044016020604051808303816000875af1158015610419573d6000803e3d6000fd5b505050506040513d601f19601f8201168201806040525081019061043d9190610dcd565b50604080518281526000602082015289916001600160a01b038c16917f6f3909b7a53c87de0fbb65758a177c9d1137e29b1555684084e2e4161b064b2b910160405180910390a3505050505050505050565b6000806000838060200190518101906104a89190610d5f565b905060006104b4610122565b5091505060648160200151836104ca9190610d8e565b6104d49190610dab565b81602001516104e39190610df6565b9350612710816060015161ffff16856104fc9190610d8e565b6105069190610dab565b92505050915091565b600080600061051c610122565b50915091506000826001600160a01b03166318160ddd6040518163ffffffff1660e01b8152600401602060405180830381865afa158015610561573d6000803e3d6000fd5b505050506040513d601f19601f820116820180604052508101906105859190610d5f565b90506000806105b4836040516020016105a091815260200190565b60405160208183030381529060405261048f565b90925090506000806105c8898b018b610e09565b875191935091506001600160a01b03166323b872dd8c3060ff85166105ed888a610df6565b6105f79190610d8e565b6040517fffffffff0000000000000000000000000000000000000000000000000000000060e086901b1681526001600160a01b03938416600482015292909116602483015260448201526064016020604051808303816000875af1158015610663573d6000803e3d6000fd5b505050506040513d601f19601f820116820180604052508101906106879190610dcd565b506000876001600160a01b031663b510391f8d856040516020016106ad91815260200190565b6040516020818303038152906040526040518363ffffffff1660e01b81526004016106d9929190610e3f565b6020604051808303816000875af11580156106f8573d6000803e3d6000fd5b505050506040513d601f19601f8201168201806040525081019061071c9190610d5f565b9050876001600160a01b03166318160ddd6040518163ffffffff1660e01b8152600401602060405180830381865afa15801561075c573d6000803e3d6000fd5b505050506040513d601f19601f820116820180604052508101906107809190610d5f565b61078b876001610df6565b146107f2576040517f08c379a000000000000000000000000000000000000000000000000000000000815260206004820152601960248201527f455243373532374167656e63793a205265656e7472616e6379000000000000006044820152606401610264565b604080518681526020810186905282916001600160a01b038f16917f53c6313aa0cdb420b390a846db25405b96983737e602bba548f9ade0e4feaec9910160405180910390a39b9a5050505050505050505050565b6000806000838060200190518101906108609190610d5f565b9050600061086c610122565b5091505060648160200151836108829190610d8e565b61088c9190610dab565b816020015161089b9190610df6565b9350612710816080015161ffff16856104fc9190610d8e565b6040517f6352211e00000000000000000000000000000000000000000000000000000000815260048101829052600090849082906001600160a01b03831690636352211e90602401602060405180830381865afa158015610919573d6000803e3d6000fd5b505050506040513d601f19601f8201168201806040525081019061093d9190610e69565b9050806001600160a01b0316856001600160a01b031614806109e557506040517fe985e9c50000000000000000000000000000000000000000000000000000000081526001600160a01b038281166004830152868116602483015283169063e985e9c590604401602060405180830381865afa1580156109c1573d6000803e3d6000fd5b505050506040513d601f19601f820116820180604052508101906109e59190610dcd565b80610a7d57506040517f081812fc000000000000000000000000000000000000000000000000000000008152600481018590526001600160a01b03808716919084169063081812fc90602401602060405180830381865afa158015610a4e573d6000803e3d6000fd5b505050506040513d601f19601f82011682018060405250810190610a729190610e69565b6001600160a01b0316145b9695505050505050565b6000815180845260005b81811015610aad57602081850181015186830182015201610a91565b506000602082860101526020601f19601f83011685010191505092915050565b60006001600160a01b0380861683528085511660208401526020850151604084015280604086015116606084015250606084015161ffff80821660808501528060808701511660a0850152505060e060c0830152610b2e60e0830184610a87565b95945050505050565b6001600160a01b0381168114610b4c57600080fd5b50565b60008083601f840112610b6157600080fd5b50813567ffffffffffffffff811115610b7957600080fd5b602083019150836020828501011115610b9157600080fd5b9250929050565b60008060008060608587031215610bae57600080fd5b8435610bb981610b37565b935060208501359250604085013567ffffffffffffffff811115610bdc57600080fd5b610be887828801610b4f565b95989497509550505050565b634e487b7160e01b600052604160045260246000fd5b600060208284031215610c1c57600080fd5b813567ffffffffffffffff80821115610c3457600080fd5b818401915084601f830112610c4857600080fd5b813581811115610c5a57610c5a610bf4565b604051601f8201601f19908116603f01168101908382118183101715610c8257610c82610bf4565b81604052828152876020848701011115610c9b57600080fd5b826020860160208301376000928101602001929092525095945050505050565b600080600060408486031215610cd057600080fd5b8335610cdb81610b37565b9250602084013567ffffffffffffffff811115610cf757600080fd5b610d0386828701610b4f565b9497909650939450505050565b600060208284031215610d2257600080fd5b5035919050565b83815260406020820152816040820152818360608301376000818301606090810191909152601f909201601f1916010192915050565b600060208284031215610d7157600080fd5b5051919050565b634e487b7160e01b600052601160045260246000fd5b8082028115828204841417610da557610da5610d78565b92915050565b600082610dc857634e487b7160e01b600052601260045260246000fd5b500490565b600060208284031215610ddf57600080fd5b81518015158114610def57600080fd5b9392505050565b80820180821115610da557610da5610d78565b60008060408385031215610e1c57600080fd5b82359150602083013560ff81168114610e3457600080fd5b809150509250929050565b6001600160a01b0383168152604060208201526000610e616040830184610a87565b949350505050565b600060208284031215610e7b57600080fd5b8151610def81610b3756fea2646970667358221220f2c15b8934bd162df6834c6d297081f2556ab949f408cea3ecb1d2af051935ff64736f6c6343000814003360806040523480156200001157600080fd5b506040518060400160405280600c81526020016b18d85c90dbdb5c1bdb995b9d60a21b8152506040518060400160405280600381526020016210d0d560ea1b815250816000908162000064919062000121565b50600162000073828262000121565b505050620001ed565b634e487b7160e01b600052604160045260246000fd5b600181811c90821680620000a757607f821691505b602082108103620000c857634e487b7160e01b600052602260045260246000fd5b50919050565b601f8211156200011c57600081815260208120601f850160051c81016020861015620000f75750805b601f850160051c820191505b81811015620001185782815560010162000103565b5050505b505050565b81516001600160401b038111156200013d576200013d6200007c565b62000155816200014e845462000092565b84620000ce565b602080601f8311600181146200018d5760008415620001745750858301515b600019600386901b1c1916600185901b17855562000118565b600085815260208120601f198616915b82811015620001be578886015182559484019460019091019084016200019d565b5085821015620001dd5787850151600019600388901b60f8161c191681555b5050505050600190811b01905550565b61206a80620001fd6000396000f3fe608060405234801561001057600080fd5b50600436106101985760003560e01c80636b8ff574116100e3578063b510391f1161008c578063dbd2e2e211610066578063dbd2e2e21461036d578063e985e9c514610380578063fe9d9303146103bc57600080fd5b8063b510391f14610334578063b88d4fde14610347578063c87b56dd1461035a57600080fd5b8063a22cb465116100bd578063a22cb46514610306578063a8a99ce814610319578063b4f35b9a1461032c57600080fd5b80636b8ff574146102a557806370a08231146102eb57806395d89b41146102fe57600080fd5b80632f745c59116101455780634c0f38c21161011f5780634c0f38c2146102785780634f6ccce71461027f5780636352211e1461029257600080fd5b80632f745c591461023f57806339b3d2431461025257806342842e0e1461026557600080fd5b8063095ea7b311610176578063095ea7b31461020557806318160ddd1461021a57806323b872dd1461022c57600080fd5b806301ffc9a71461019d57806306fdde03146101c5578063081812fc146101da575b600080fd5b6101b06101ab366004611bba565b6103cf565b60405190151581526020015b60405180910390f35b6101cd61042b565b6040516101bc9190611c27565b6101ed6101e8366004611c3a565b6104bd565b6040516001600160a01b0390911681526020016101bc565b610218610213366004611c68565b6104e4565b005b6008545b6040519081526020016101bc565b61021861023a366004611c94565b61061a565b61021e61024d366004611c68565b6106a1565b610218610260366004611cd5565b610749565b610218610273366004611c94565b6107e2565b606461021e565b61021e61028d366004611c3a565b6107fd565b6101ed6102a0366004611c3a565b6108a1565b6101cd6102b3366004611c3a565b5060408051808201909152600381527f4170700000000000000000000000000000000000000000000000000000000000602082015290565b61021e6102f9366004611cd5565b610906565b6101cd6109a0565b610218610314366004611cf2565b6109af565b610218610327366004611c68565b6109be565b6101ed610a22565b61021e610342366004611d79565b610a3b565b610218610355366004611de4565b610b39565b6101cd610368366004611c3a565b610bc7565b61021861037b366004611cd5565b610c3b565b6101b061038e366004611ec4565b6001600160a01b03918216600090815260056020908152604080832093909416825291909152205460ff1690565b6102186103ca366004611ef2565b610ce9565b60007fffffffff0000000000000000000000000000000000000000000000000000000082167f780e9d63000000000000000000000000000000000000000000000000000000001480610425575061042582610d4c565b92915050565b60606000805461043a90611f25565b80601f016020809104026020016040519081016040528092919081815260200182805461046690611f25565b80156104b35780601f10610488576101008083540402835291602001916104b3565b820191906000526020600020905b81548152906001019060200180831161049657829003601f168201915b5050505050905090565b60006104c882610e2f565b506000908152600460205260409020546001600160a01b031690565b60006104ef826108a1565b9050806001600160a01b0316836001600160a01b03160361057d5760405162461bcd60e51b815260206004820152602160248201527f4552433732313a20617070726f76616c20746f2063757272656e74206f776e6560448201527f720000000000000000000000000000000000000000000000000000000000000060648201526084015b60405180910390fd5b336001600160a01b03821614806105995750610599813361038e565b61060b5760405162461bcd60e51b815260206004820152603d60248201527f4552433732313a20617070726f76652063616c6c6572206973206e6f7420746f60448201527f6b656e206f776e6572206f7220617070726f76656420666f7220616c6c0000006064820152608401610574565b6106158383610e96565b505050565b6106243382610f11565b6106965760405162461bcd60e51b815260206004820152602d60248201527f4552433732313a2063616c6c6572206973206e6f7420746f6b656e206f776e6560448201527f72206f7220617070726f766564000000000000000000000000000000000000006064820152608401610574565b610615838383610f8f565b60006106ac83610906565b82106107205760405162461bcd60e51b815260206004820152602b60248201527f455243373231456e756d657261626c653a206f776e657220696e646578206f7560448201527f74206f6620626f756e64730000000000000000000000000000000000000000006064820152608401610574565b506001600160a01b03919091166000908152600660209081526040808320938352929052205490565b600061075d600b546001600160a01b031690565b6001600160a01b0316146107b35760405162461bcd60e51b815260206004820152600b60248201527f616c7265616479207365740000000000000000000000000000000000000000006044820152606401610574565b600b805473ffffffffffffffffffffffffffffffffffffffff19166001600160a01b0392909216919091179055565b61061583838360405180602001604052806000815250610b39565b600061080860085490565b821061087c5760405162461bcd60e51b815260206004820152602c60248201527f455243373231456e756d657261626c653a20676c6f62616c20696e646578206f60448201527f7574206f6620626f756e647300000000000000000000000000000000000000006064820152608401610574565b6008828154811061088f5761088f611f5f565b90600052602060002001549050919050565b6000818152600260205260408120546001600160a01b0316806104255760405162461bcd60e51b815260206004820152601860248201527f4552433732313a20696e76616c696420746f6b656e20494400000000000000006044820152606401610574565b60006001600160a01b0382166109845760405162461bcd60e51b815260206004820152602960248201527f4552433732313a2061646472657373207a65726f206973206e6f74206120766160448201527f6c6964206f776e657200000000000000000000000000000000000000000000006064820152608401610574565b506001600160a01b031660009081526003602052604090205490565b60606001805461043a90611f25565b6109ba3383836111d2565b5050565b600a546001600160a01b03163314610a185760405162461bcd60e51b815260206004820152600960248201527f6f6e6c792067616d6500000000000000000000000000000000000000000000006044820152606401610574565b6109ba8282610e96565b6000610a36600b546001600160a01b031690565b905090565b6000610a4f600b546001600160a01b031690565b6001600160a01b0316336001600160a01b031614610aaf5760405162461bcd60e51b815260206004820152600b60248201527f6f6e6c79206167656e63790000000000000000000000000000000000000000006044820152606401610574565b606460085410610b015760405162461bcd60e51b815260206004820152601260248201527f6d617820737570706c79207265616368656400000000000000000000000000006044820152606401610574565b6000610b0f83850185611c3a565b9050610b1b85826112be565b600a54610b31906001600160a01b031682610e96565b949350505050565b610b433383610f11565b610bb55760405162461bcd60e51b815260206004820152602d60248201527f4552433732313a2063616c6c6572206973206e6f7420746f6b656e206f776e6560448201527f72206f7220617070726f766564000000000000000000000000000000000000006064820152608401610574565b610bc184848484611464565b50505050565b6060610bd282610e2f565b6000610be960408051602081019091526000815290565b90506000815111610c095760405180602001604052806000815250610c34565b80610c13846114ed565b604051602001610c24929190611f75565b6040516020818303038152906040525b9392505050565b600a546001600160a01b031615610cba5760405162461bcd60e51b815260206004820152602160248201527f6c6f746c6f6f74206164647265737320686173206265696e672073657474696e60448201527f67000000000000000000000000000000000000000000000000000000000000006064820152608401610574565b600a805473ffffffffffffffffffffffffffffffffffffffff19166001600160a01b0392909216919091179055565b600b546001600160a01b03163314610d435760405162461bcd60e51b815260206004820152600b60248201527f6f6e6c79206167656e63790000000000000000000000000000000000000000006044820152606401610574565b6106158361158d565b60007fffffffff0000000000000000000000000000000000000000000000000000000082167f80ac58cd000000000000000000000000000000000000000000000000000000001480610ddf57507fffffffff0000000000000000000000000000000000000000000000000000000082167f5b5e139f00000000000000000000000000000000000000000000000000000000145b8061042557507f01ffc9a7000000000000000000000000000000000000000000000000000000007fffffffff00000000000000000000000000000000000000000000000000000000831614610425565b6000818152600260205260409020546001600160a01b0316610e935760405162461bcd60e51b815260206004820152601860248201527f4552433732313a20696e76616c696420746f6b656e20494400000000000000006044820152606401610574565b50565b6000818152600460205260409020805473ffffffffffffffffffffffffffffffffffffffff19166001600160a01b0384169081179091558190610ed8826108a1565b6001600160a01b03167f8c5be1e5ebec7d5bd14f71427d1e84f3dd0314c0f7b2291e5b200ac8c7c3b92560405160405180910390a45050565b600080610f1d836108a1565b9050806001600160a01b0316846001600160a01b03161480610f6457506001600160a01b0380821660009081526005602090815260408083209388168352929052205460ff165b80610b315750836001600160a01b0316610f7d846104bd565b6001600160a01b031614949350505050565b826001600160a01b0316610fa2826108a1565b6001600160a01b03161461101e5760405162461bcd60e51b815260206004820152602560248201527f4552433732313a207472616e736665722066726f6d20696e636f72726563742060448201527f6f776e65720000000000000000000000000000000000000000000000000000006064820152608401610574565b6001600160a01b0382166110995760405162461bcd60e51b8152602060048201526024808201527f4552433732313a207472616e7366657220746f20746865207a65726f2061646460448201527f72657373000000000000000000000000000000000000000000000000000000006064820152608401610574565b6110a6838383600161163d565b826001600160a01b03166110b9826108a1565b6001600160a01b0316146111355760405162461bcd60e51b815260206004820152602560248201527f4552433732313a207472616e736665722066726f6d20696e636f72726563742060448201527f6f776e65720000000000000000000000000000000000000000000000000000006064820152608401610574565b6000818152600460209081526040808320805473ffffffffffffffffffffffffffffffffffffffff199081169091556001600160a01b0387811680865260038552838620805460001901905590871680865283862080546001019055868652600290945282852080549092168417909155905184937fddf252ad1be2c89b69c2b068fc378daa952ba7f163c4a11628f55a4df523b3ef91a4505050565b816001600160a01b0316836001600160a01b0316036112335760405162461bcd60e51b815260206004820152601960248201527f4552433732313a20617070726f766520746f2063616c6c6572000000000000006044820152606401610574565b6001600160a01b0383811660008181526005602090815260408083209487168084529482529182902080547fffffffffffffffffffffffffffffffffffffffffffffffffffffffffffffff001686151590811790915591519182527f17307eab39ab6107e8899845ad3d59bd9653f200f220920489ca2b5937696c31910160405180910390a3505050565b6001600160a01b0382166113145760405162461bcd60e51b815260206004820181905260248201527f4552433732313a206d696e7420746f20746865207a65726f20616464726573736044820152606401610574565b6000818152600260205260409020546001600160a01b0316156113795760405162461bcd60e51b815260206004820152601c60248201527f4552433732313a20746f6b656e20616c7265616479206d696e746564000000006044820152606401610574565b61138760008383600161163d565b6000818152600260205260409020546001600160a01b0316156113ec5760405162461bcd60e51b815260206004820152601c60248201527f4552433732313a20746f6b656e20616c7265616479206d696e746564000000006044820152606401610574565b6001600160a01b0382166000818152600360209081526040808320805460010190558483526002909152808220805473ffffffffffffffffffffffffffffffffffffffff19168417905551839291907fddf252ad1be2c89b69c2b068fc378daa952ba7f163c4a11628f55a4df523b3ef908290a45050565b61146f848484610f8f565b61147b84848484611779565b610bc15760405162461bcd60e51b815260206004820152603260248201527f4552433732313a207472616e7366657220746f206e6f6e20455243373231526560448201527f63656976657220696d706c656d656e74657200000000000000000000000000006064820152608401610574565b606060006114fa8361191a565b600101905060008167ffffffffffffffff81111561151a5761151a611dce565b6040519080825280601f01601f191660200182016040528015611544576020820181803683370190505b5090508181016020015b600019017f3031323334353637383961626364656600000000000000000000000000000000600a86061a8153600a850494508461154e57509392505050565b6000611598826108a1565b90506115a881600084600161163d565b6115b1826108a1565b6000838152600460209081526040808320805473ffffffffffffffffffffffffffffffffffffffff199081169091556001600160a01b0385168085526003845282852080546000190190558785526002909352818420805490911690555192935084927fddf252ad1be2c89b69c2b068fc378daa952ba7f163c4a11628f55a4df523b3ef908390a45050565b60018111156116b45760405162461bcd60e51b815260206004820152603560248201527f455243373231456e756d657261626c653a20636f6e736563757469766520747260448201527f616e7366657273206e6f7420737570706f7274656400000000000000000000006064820152608401610574565b816001600160a01b0385166117105761170b81600880546000838152600960205260408120829055600182018355919091527ff3f7a9fe364faab93b216da50a3214154f22a0a2b415b23a84c8169e8b636ee30155565b611733565b836001600160a01b0316856001600160a01b0316146117335761173385826119fc565b6001600160a01b03841661174f5761174a81611a99565b611772565b846001600160a01b0316846001600160a01b031614611772576117728482611b48565b5050505050565b60006001600160a01b0384163b1561190f576040517f150b7a020000000000000000000000000000000000000000000000000000000081526001600160a01b0385169063150b7a02906117d6903390899088908890600401611fa4565b6020604051808303816000875af1925050508015611811575060408051601f3d908101601f1916820190925261180e91810190611fe0565b60015b6118c4573d80801561183f576040519150601f19603f3d011682016040523d82523d6000602084013e611844565b606091505b5080516000036118bc5760405162461bcd60e51b815260206004820152603260248201527f4552433732313a207472616e7366657220746f206e6f6e20455243373231526560448201527f63656976657220696d706c656d656e74657200000000000000000000000000006064820152608401610574565b805181602001fd5b7fffffffff00000000000000000000000000000000000000000000000000000000167f150b7a0200000000000000000000000000000000000000000000000000000000149050610b31565b506001949350505050565b6000807a184f03e93ff9f4daa797ed6e38ed64bf6a1f0100000000000000008310611963577a184f03e93ff9f4daa797ed6e38ed64bf6a1f010000000000000000830492506040015b6d04ee2d6d415b85acef8100000000831061198f576d04ee2d6d415b85acef8100000000830492506020015b662386f26fc1000083106119ad57662386f26fc10000830492506010015b6305f5e10083106119c5576305f5e100830492506008015b61271083106119d957612710830492506004015b606483106119eb576064830492506002015b600a83106104255760010192915050565b60006001611a0984610906565b611a139190611ffd565b600083815260076020526040902054909150808214611a66576001600160a01b03841660009081526006602090815260408083208584528252808320548484528184208190558352600790915290208190555b5060009182526007602090815260408084208490556001600160a01b039094168352600681528383209183525290812055565b600854600090611aab90600190611ffd565b60008381526009602052604081205460088054939450909284908110611ad357611ad3611f5f565b906000526020600020015490508060088381548110611af457611af4611f5f565b6000918252602080832090910192909255828152600990915260408082208490558582528120556008805480611b2c57611b2c61201e565b6001900381819060005260206000200160009055905550505050565b6000611b5383610906565b6001600160a01b039093166000908152600660209081526040808320868452825280832085905593825260079052919091209190915550565b7fffffffff0000000000000000000000000000000000000000000000000000000081168114610e9357600080fd5b600060208284031215611bcc57600080fd5b8135610c3481611b8c565b60005b83811015611bf2578181015183820152602001611bda565b50506000910152565b60008151808452611c13816020860160208601611bd7565b601f01601f19169290920160200192915050565b602081526000610c346020830184611bfb565b600060208284031215611c4c57600080fd5b5035919050565b6001600160a01b0381168114610e9357600080fd5b60008060408385031215611c7b57600080fd5b8235611c8681611c53565b946020939093013593505050565b600080600060608486031215611ca957600080fd5b8335611cb481611c53565b92506020840135611cc481611c53565b929592945050506040919091013590565b600060208284031215611ce757600080fd5b8135610c3481611c53565b60008060408385031215611d0557600080fd5b8235611d1081611c53565b915060208301358015158114611d2557600080fd5b809150509250929050565b60008083601f840112611d4257600080fd5b50813567ffffffffffffffff811115611d5a57600080fd5b602083019150836020828501011115611d7257600080fd5b9250929050565b600080600060408486031215611d8e57600080fd5b8335611d9981611c53565b9250602084013567ffffffffffffffff811115611db557600080fd5b611dc186828701611d30565b9497909650939450505050565b634e487b7160e01b600052604160045260246000fd5b60008060008060808587031215611dfa57600080fd5b8435611e0581611c53565b93506020850135611e1581611c53565b925060408501359150606085013567ffffffffffffffff80821115611e3957600080fd5b818701915087601f830112611e4d57600080fd5b813581811115611e5f57611e5f611dce565b604051601f8201601f19908116603f01168101908382118183101715611e8757611e87611dce565b816040528281528a6020848701011115611ea057600080fd5b82602086016020830137600060208483010152809550505050505092959194509250565b60008060408385031215611ed757600080fd5b8235611ee281611c53565b91506020830135611d2581611c53565b600080600060408486031215611f0757600080fd5b83359250602084013567ffffffffffffffff811115611db557600080fd5b600181811c90821680611f3957607f821691505b602082108103611f5957634e487b7160e01b600052602260045260246000fd5b50919050565b634e487b7160e01b600052603260045260246000fd5b60008351611f87818460208801611bd7565b835190830190611f9b818360208801611bd7565b01949350505050565b60006001600160a01b03808716835280861660208401525083604083015260806060830152611fd66080830184611bfb565b9695505050505050565b600060208284031215611ff257600080fd5b8151610c3481611b8c565b8181038181111561042557634e487b7160e01b600052601160045260246000fd5b634e487b7160e01b600052603160045260246000fdfea26469706673582212206b7df690b7fcb476e9eb20052b24265003c300434fc4bf1a2fd681e27c5ce3e964736f6c63430008140033608060405234801561001057600080fd5b50610793806100206000396000f3fe608060405234801561001057600080fd5b506004361061002b5760003560e01c80630f47899114610030575b600080fd5b61004361003e366004610510565b610074565b6040805173ffffffffffffffffffffffffffffffffffffffff93841681529290911660208301520160405180910390f35b600080806100e661008860208801886105d7565b8080601f0160208091040260200160405190810160405280939291908181526020018383808284376000920191909152506100ca925050506020890189610668565b73ffffffffffffffffffffffffffffffffffffffff1690610350565b9050600061017d826100fe60408b0160208c01610668565b60408b013561011360808d0160608e01610668565b61012360a08e0160808f0161068c565b8d6020016080016020810190610139919061068c565b8e8060c0019061014991906105d7565b6040516020016101609897969594939291906106b0565b60408051601f198184030181529190526100ca60208b018b610668565b6040517f39b3d24300000000000000000000000000000000000000000000000000000000815273ffffffffffffffffffffffffffffffffffffffff8083166004830152919250908316906339b3d24390602401600060405180830381600087803b1580156101ea57600080fd5b505af11580156101fe573d6000803e3d6000fd5b506102109250505060e08901896105d7565b1590506102a35760008073ffffffffffffffffffffffffffffffffffffffff831661023e60e08c018c6105d7565b60405161024c92919061074d565b6000604051808303816000865af19150503d8060008114610289576040519150601f19603f3d011682016040523d82523d6000602084013e61028e565b606091505b5091509150816102a057805160208201fd5b50505b6102b060408801886105d7565b1590506103435760008073ffffffffffffffffffffffffffffffffffffffff84166102de60408b018b6105d7565b6040516102ec92919061074d565b6000604051808303816000865af19150503d8060008114610329576040519150601f19603f3d011682016040523d82523d6000602084013e61032e565b606091505b50915091508161034057805160208201fd5b50505b9097909650945050505050565b80516040517f610000000000000000000000000000000000000000000000000000000000000081526039820160f081811b60018401527f3d81600a3d39f33d3d3d3d363d3d376100000000000000000000000000000000600384015260028401901b601383018190527f60373639366100000000000000000000000000000000000000000000000000006015840152601b8301527f013d730000000000000000000000000000000000000000000000000000000000601d830152606085901b6020808401919091527f5af43d3d93803e603557fd5bf30000000000000000000000000000000000000060348401526000939260438401929186019084604182015b602082106104705783518152602093840193601f199092019101610451565b83517fffffffffffffffffffffffffffffffffffffffffffffffffffffffffffffffff60208490036101000a0119908116825260f088901b91830191825286846000f0985073ffffffffffffffffffffffffffffffffffffffff8916610502576040517febfef18800000000000000000000000000000000000000000000000000000000815260040160405180910390fd5b505050505050505092915050565b6000806000806060858703121561052657600080fd5b843567ffffffffffffffff8082111561053e57600080fd5b90860190610100828903121561055357600080fd5b9094506020860135908082111561056957600080fd5b908601906060828903121561057d57600080fd5b9093506040860135908082111561059357600080fd5b818701915087601f8301126105a757600080fd5b8135818111156105b657600080fd5b8860208285010111156105c857600080fd5b95989497505060200194505050565b60008083357fffffffffffffffffffffffffffffffffffffffffffffffffffffffffffffffe184360301811261060c57600080fd5b83018035915067ffffffffffffffff82111561062757600080fd5b60200191503681900382131561063c57600080fd5b9250929050565b73ffffffffffffffffffffffffffffffffffffffff8116811461066557600080fd5b50565b60006020828403121561067a57600080fd5b813561068581610643565b9392505050565b60006020828403121561069e57600080fd5b813561ffff8116811461068557600080fd5b60007fffffffffffffffffffffffffffffffffffffffff000000000000000000000000808b60601b168352808a60601b166014840152886028840152808860601b166048840152507fffff000000000000000000000000000000000000000000000000000000000000808760f01b16605c840152808660f01b16605e84015250828460608401375060009101606001908152979650505050505050565b818382376000910190815291905056fea2646970667358221220a3777e3ce8fd530cd3418d232ff88ce8a3d6c9fd60cb0e33958a8fa872237d3c64736f6c63430008140033a2646970667358221220ff3152918fc632da1d74b4dce8fa707e434816d427bed7f42c7faeb1a8b3f48c64736f6c63430008140033",
  "linkReferences": {},
  "deployedLinkReferences": {}
}